:020000040000FA
:020000000528D1
:08000800090000308B00831693
:100010000C308500003086008312003086002A20D4
:10002000051D3228851D1E281028272034202E204B
:1000300034202720861634202A2010282720342018
:100040002E2034202720061634202A2010280612BD
:1000500086120800061306168616080006170616EE
:10006000861608008617861306308E0001308F0032
:10007000FF308C000F188E0B3E280800FF308D00DB
:0E0080008D0B40288C0B3E280F1838280800E6
:02400E00F93F78
:00000001FF
